{
    "_format": "hh-sol-artifact-1",
    "contractName": "KrikaxNFT",
    "sourceName": "contracts/NFT.sol",
    "abi": [
        {
            "inputs": [
                {
                    "internalType": "string",
                    "name": "_name",
                    "type": "string"
                },
                {
                    "internalType": "string",
                    "name": "_symbol",
                    "type": "string"
                }
            ],
            "stateMutability": "nonpayable",
            "type": "constructor"
        },
        {
            "anonymous": false,
            "inputs": [
                {
                    "indexed": true,
                    "internalType": "address",
                    "name": "owner",
                    "type": "address"
                },
                {
                    "indexed": true,
                    "internalType": "address",
                    "name": "approved",
                    "type": "address"
                },
                {
                    "indexed": true,
                    "internalType": "uint256",
                    "name": "tokenId",
                    "type": "uint256"
                }
            ],
            "name": "Approval",
            "type": "event"
        },
        {
            "anonymous": false,
            "inputs": [
                {
                    "indexed": true,
                    "internalType": "address",
                    "name": "owner",
                    "type": "address"
                },
                {
                    "indexed": true,
                    "internalType": "address",
                    "name": "operator",
                    "type": "address"
                },
                {
                    "indexed": false,
                    "internalType": "bool",
                    "name": "approved",
                    "type": "bool"
                }
            ],
            "name": "ApprovalForAll",
            "type": "event"
        },
        {
            "anonymous": false,
            "inputs": [
                {
                    "indexed": true,
                    "internalType": "address",
                    "name": "from",
                    "type": "address"
                },
                {
                    "indexed": true,
                    "internalType": "address",
                    "name": "to",
                    "type": "address"
                },
                {
                    "indexed": true,
                    "internalType": "uint256",
                    "name": "tokenId",
                    "type": "uint256"
                }
            ],
            "name": "Transfer",
            "type": "event"
        },
        {
            "inputs": [
                {
                    "internalType": "address",
                    "name": "to",
                    "type": "address"
                },
                {
                    "internalType": "uint256",
                    "name": "tokenId",
                    "type": "uint256"
                }
            ],
            "name": "approve",
            "outputs": [],
            "stateMutability": "nonpayable",
            "type": "function"
        },
        {
            "inputs": [
                {
                    "internalType": "address",
                    "name": "owner",
                    "type": "address"
                }
            ],
            "name": "balanceOf",
            "outputs": [
                {
                    "internalType": "uint256",
                    "name": "",
                    "type": "uint256"
                }
            ],
            "stateMutability": "view",
            "type": "function"
        },
        {
            "inputs": [
                {
                    "internalType": "uint256",
                    "name": "tokenId",
                    "type": "uint256"
                }
            ],
            "name": "getApproved",
            "outputs": [
                {
                    "internalType": "address",
                    "name": "",
                    "type": "address"
                }
            ],
            "stateMutability": "view",
            "type": "function"
        },
        {
            "inputs": [
                {
                    "internalType": "address",
                    "name": "owner",
                    "type": "address"
                },
                {
                    "internalType": "address",
                    "name": "operator",
                    "type": "address"
                }
            ],
            "name": "isApprovedForAll",
            "outputs": [
                {
                    "internalType": "bool",
                    "name": "",
                    "type": "bool"
                }
            ],
            "stateMutability": "view",
            "type": "function"
        },
        {
            "inputs": [
                {
                    "internalType": "address",
                    "name": "recipient",
                    "type": "address"
                },
                {
                    "internalType": "uint256",
                    "name": "tokenId",
                    "type": "uint256"
                },
                {
                    "internalType": "string",
                    "name": "tokenUri",
                    "type": "string"
                }
            ],
            "name": "mint",
            "outputs": [],
            "stateMutability": "nonpayable",
            "type": "function"
        },
        {
            "inputs": [],
            "name": "name",
            "outputs": [
                {
                    "internalType": "string",
                    "name": "",
                    "type": "string"
                }
            ],
            "stateMutability": "view",
            "type": "function"
        },
        {
            "inputs": [
                {
                    "internalType": "uint256",
                    "name": "tokenId",
                    "type": "uint256"
                }
            ],
            "name": "ownerOf",
            "outputs": [
                {
                    "internalType": "address",
                    "name": "",
                    "type": "address"
                }
            ],
            "stateMutability": "view",
            "type": "function"
        },
        {
            "inputs": [
                {
                    "internalType": "address",
                    "name": "from",
                    "type": "address"
                },
                {
                    "internalType": "address",
                    "name": "to",
                    "type": "address"
                },
                {
                    "internalType": "uint256",
                    "name": "tokenId",
                    "type": "uint256"
                }
            ],
            "name": "safeTransferFrom",
            "outputs": [],
            "stateMutability": "nonpayable",
            "type": "function"
        },
        {
            "inputs": [
                {
                    "internalType": "address",
                    "name": "from",
                    "type": "address"
                },
                {
                    "internalType": "address",
                    "name": "to",
                    "type": "address"
                },
                {
                    "internalType": "uint256",
                    "name": "tokenId",
                    "type": "uint256"
                },
                {
                    "internalType": "bytes",
                    "name": "data",
                    "type": "bytes"
                }
            ],
            "name": "safeTransferFrom",
            "outputs": [],
            "stateMutability": "nonpayable",
            "type": "function"
        },
        {
            "inputs": [
                {
                    "internalType": "address",
                    "name": "operator",
                    "type": "address"
                },
                {
                    "internalType": "bool",
                    "name": "approved",
                    "type": "bool"
                }
            ],
            "name": "setApprovalForAll",
            "outputs": [],
            "stateMutability": "nonpayable",
            "type": "function"
        },
        {
            "inputs": [
                {
                    "internalType": "bytes4",
                    "name": "interfaceId",
                    "type": "bytes4"
                }
            ],
            "name": "supportsInterface",
            "outputs": [
                {
                    "internalType": "bool",
                    "name": "",
                    "type": "bool"
                }
            ],
            "stateMutability": "view",
            "type": "function"
        },
        {
            "inputs": [],
            "name": "symbol",
            "outputs": [
                {
                    "internalType": "string",
                    "name": "",
                    "type": "string"
                }
            ],
            "stateMutability": "view",
            "type": "function"
        },
        {
            "inputs": [
                {
                    "internalType": "uint256",
                    "name": "tokenId",
                    "type": "uint256"
                }
            ],
            "name": "tokenURI",
            "outputs": [
                {
                    "internalType": "string",
                    "name": "",
                    "type": "string"
                }
            ],
            "stateMutability": "view",
            "type": "function"
        },
        {
            "inputs": [
                {
                    "internalType": "address",
                    "name": "from",
                    "type": "address"
                },
                {
                    "internalType": "address",
                    "name": "to",
                    "type": "address"
                },
                {
                    "internalType": "uint256",
                    "name": "tokenId",
                    "type": "uint256"
                }
            ],
            "name": "transferFrom",
            "outputs": [],
            "stateMutability": "nonpayable",
            "type": "function"
        }
    ],
    "bytecode": "0x60806040523480156200001157600080fd5b506040516200280938038062002809833981810160405281019062000037919062000197565b818181600090805190602001906200005192919062000075565b5080600190805190602001906200006a92919062000075565b50505050506200037a565b82805462000083906200029f565b90600052602060002090601f016020900481019282620000a75760008555620000f3565b82601f10620000c257805160ff1916838001178555620000f3565b82800160010185558215620000f3579182015b82811115620000f2578251825591602001919060010190620000d5565b5b50905062000102919062000106565b5090565b5b808211156200012157600081600090555060010162000107565b5090565b60006200013c620001368462000233565b6200020a565b9050828152602081018484840111156200015557600080fd5b6200016284828562000269565b509392505050565b600082601f8301126200017c57600080fd5b81516200018e84826020860162000125565b91505092915050565b60008060408385031215620001ab57600080fd5b600083015167ffffffffffffffff811115620001c657600080fd5b620001d4858286016200016a565b925050602083015167ffffffffffffffff811115620001f257600080fd5b62000200858286016200016a565b9150509250929050565b60006200021662000229565b9050620002248282620002d5565b919050565b6000604051905090565b600067ffffffffffffffff8211156200025157620002506200033a565b5b6200025c8262000369565b9050602081019050919050565b60005b83811015620002895780820151818401526020810190506200026c565b8381111562000299576000848401525b50505050565b60006002820490506001821680620002b857607f821691505b60208210811415620002cf57620002ce6200030b565b5b50919050565b620002e08262000369565b810181811067ffffffffffffffff821117156200030257620003016200033a565b5b80604052505050565b7f4e487b7100000000000000000000000000000000000000000000000000000000600052602260045260246000fd5b7f4e487b7100000000000000000000000000000000000000000000000000000000600052604160045260246000fd5b6000601f19601f8301169050919050565b61247f806200038a6000396000f3fe608060405234801561001057600080fd5b50600436106100ea5760003560e01c806370a082311161008c578063b88d4fde11610066578063b88d4fde1461025b578063c87b56dd14610277578063d3fc9864146102a7578063e985e9c5146102c3576100ea565b806370a08231146101f157806395d89b4114610221578063a22cb4651461023f576100ea565b8063095ea7b3116100c8578063095ea7b31461016d57806323b872dd1461018957806342842e0e146101a55780636352211e146101c1576100ea565b806301ffc9a7146100ef57806306fdde031461011f578063081812fc1461013d575b600080fd5b610109600480360381019061010491906118fa565b6102f3565b6040516101169190611c1f565b60405180910390f35b6101276103d5565b6040516101349190611c3a565b60405180910390f35b6101576004803603810190610152919061194c565b610467565b6040516101649190611bb8565b60405180910390f35b61018760048036038101906101829190611857565b6104ad565b005b6101a3600480360381019061019e9190611751565b6105c5565b005b6101bf60048036038101906101ba9190611751565b610625565b005b6101db60048036038101906101d6919061194c565b610645565b6040516101e89190611bb8565b60405180910390f35b61020b600480360381019061020691906116ec565b6106f7565b6040516102189190611ddc565b60405180910390f35b6102296107af565b6040516102369190611c3a565b60405180910390f35b6102596004803603810190610254919061181b565b610841565b005b610275600480360381019061027091906117a0565b610857565b005b610291600480360381019061028c919061194c565b6108b9565b60405161029e9190611c3a565b60405180910390f35b6102c160048036038101906102bc9190611893565b6109a8565b005b6102dd60048036038101906102d89190611715565b6109c1565b6040516102ea9190611c1f565b60405180910390f35b60007f80ac58cd000000000000000000000000000000000000000000000000000000007bffffffffffffffffffffffffffffffffffffffffffffffffffffffff1916827bffffffffffffffffffffffffffffffffffffffffffffffffffffffff191614806103be57507f5b5e139f000000000000000000000000000000000000000000000000000000007bffffffffffffffffffffffffffffffffffffffffffffffffffffffff1916827bffffffffffffffffffffffffffffffffffffffffffffffffffffffff1916145b806103ce57506103cd82610a55565b5b9050919050565b6060600080546103e490611ff6565b80601f016020809104026020016040519081016040528092919081815260200182805461041090611ff6565b801561045d5780601f106104325761010080835404028352916020019161045d565b820191906000526020600020905b81548152906001019060200180831161044057829003601f168201915b5050505050905090565b600061047282610abf565b6004600083815260200190815260200160002060009054906101000a900473ffffffffffffffffffffffffffffffffffffffff169050919050565b60006104b882610645565b90508073ffffffffffffffffffffffffffffffffffffffff168373ffffffffffffffffffffffffffffffffffffffff161415610529576040517f08c379a000000000000000000000000000000000000000000000000000000000815260040161052090611d7c565b60405180910390fd5b8073ffffffffffffffffffffffffffffffffffffffff16610548610b0a565b73ffffffffffffffffffffffffffffffffffffffff161480610577575061057681610571610b0a565b6109c1565b5b6105b6576040517f08c379a00000000000000000000000000000000000000000000000000000000081526004016105ad90611d1c565b60405180910390fd5b6105c08383610b12565b505050565b6105d66105d0610b0a565b82610bcb565b610615576040517f08c379a000000000000000000000000000000000000000000000000000000000815260040161060c90611dbc565b60405180910390fd5b610620838383610c60565b505050565b61064083838360405180602001604052806000815250610857565b505050565b6000806002600084815260200190815260200160002060009054906101000a900473ffffffffffffffffffffffffffffffffffffffff169050600073ffffffffffffffffffffffffffffffffffffffff168173ffffffffffffffffffffffffffffffffffffffff1614156106ee576040517f08c379a00000000000000000000000000000000000000000000000000000000081526004016106e590611d5c565b60405180910390fd5b80915050919050565b60008073ffffffffffffffffffffffffffffffffffffffff168273ffffffffffffffffffffffffffffffffffffffff161415610768576040517f08c379a000000000000000000000000000000000000000000000000000000000815260040161075f90611cfc565b60405180910390fd5b600360008373ffffffffffffffffffffffffffffffffffffffff1673ffffffffffffffffffffffffffffffffffffffff168152602001908152602001600020549050919050565b6060600180546107be90611ff6565b80601f01602080910402602001604051908101604052809291908181526020018280546107ea90611ff6565b80156108375780601f1061080c57610100808354040283529160200191610837565b820191906000526020600020905b81548152906001019060200180831161081a57829003601f168201915b5050505050905090565b61085361084c610b0a565b8383610ec7565b5050565b610868610862610b0a565b83610bcb565b6108a7576040517f08c379a000000000000000000000000000000000000000000000000000000000815260040161089e90611dbc565b60405180910390fd5b6108b384848484611034565b50505050565b6060816108c581611090565b610904576040517f08c379a00000000000000000000000000000000000000000000000000000000081526004016108fb90611d9c565b60405180910390fd5b60066000848152602001908152602001600020805461092290611ff6565b80601f016020809104026020016040519081016040528092919081815260200182805461094e90611ff6565b801561099b5780601f106109705761010080835404028352916020019161099b565b820191906000526020600020905b81548152906001019060200180831161097e57829003601f168201915b5050505050915050919050565b6109b283836110fc565b6109bc81836112d6565b505050565b6000600560008473ffffffffffffffffffffffffffffffffffffffff1673ffffffffffffffffffffffffffffffffffffffff16815260200190815260200160002060008373ffffffffffffffffffffffffffffffffffffffff1673ffffffffffffffffffffffffffffffffffffffff16815260200190815260200160002060009054906101000a900460ff16905092915050565b60007f01ffc9a7000000000000000000000000000000000000000000000000000000007bffffffffffffffffffffffffffffffffffffffffffffffffffffffff1916827bffffffffffffffffffffffffffffffffffffffffffffffffffffffff1916149050919050565b610ac881611090565b610b07576040517f08c379a0000000000000000000000000000000000000000000000000000000008152600401610afe90611d5c565b60405180910390fd5b50565b600033905090565b816004600083815260200190815260200160002060006101000a81548173ffffffffffffffffffffffffffffffffffffffff021916908373ffffffffffffffffffffffffffffffffffffffff160217905550808273ffffffffffffffffffffffffffffffffffffffff16610b8583610645565b73ffffffffffffffffffffffffffffffffffffffff167f8c5be1e5ebec7d5bd14f71427d1e84f3dd0314c0f7b2291e5b200ac8c7c3b92560405160405180910390a45050565b600080610bd783610645565b90508073ffffffffffffffffffffffffffffffffffffffff168473ffffffffffffffffffffffffffffffffffffffff161480610c195750610c1881856109c1565b5b80610c5757508373ffffffffffffffffffffffffffffffffffffffff16610c3f84610467565b73ffffffffffffffffffffffffffffffffffffffff16145b91505092915050565b8273ffffffffffffffffffffffffffffffffffffffff16610c8082610645565b73ffffffffffffffffffffffffffffffffffffffff1614610cd6576040517f08c379a0000000000000000000000000000000000000000000000000000000008152600401610ccd90611c7c565b60405180910390fd5b600073ffffffffffffffffffffffffffffffffffffffff168273ffffffffffffffffffffffffffffffffffffffff161415610d46576040517f08c379a0000000000000000000000000000000000000000000000000000000008152600401610d3d90611cbc565b60405180910390fd5b610d5183838361134c565b610d5c600082610b12565b6001600360008573ffffffffffffffffffffffffffffffffffffffff1673ffffffffffffffffffffffffffffffffffffffff1681526020019081526020016000206000828254610dac9190611f0c565b925050819055506001600360008473ffffffffffffffffffffffffffffffffffffffff1673ffffffffffffffffffffffffffffffffffffffff1681526020019081526020016000206000828254610e039190611eb6565b92505081905550816002600083815260200190815260200160002060006101000a81548173ffffffffffffffffffffffffffffffffffffffff021916908373ffffffffffffffffffffffffffffffffffffffff160217905550808273ffffffffffffffffffffffffffffffffffffffff168473ffffffffffffffffffffffffffffffffffffffff167fddf252ad1be2c89b69c2b068fc378daa952ba7f163c4a11628f55a4df523b3ef60405160405180910390a4610ec2838383611351565b505050565b8173ffffffffffffffffffffffffffffffffffffffff168373ffffffffffffffffffffffffffffffffffffffff161415610f36576040517f08c379a0000000000000000000000000000000000000000000000000000000008152600401610f2d90611cdc565b60405180910390fd5b80600560008573ffffffffffffffffffffffffffffffffffffffff1673ffffffffffffffffffffffffffffffffffffffff16815260200190815260200160002060008473ffffffffffffffffffffffffffffffffffffffff1673ffffffffffffffffffffffffffffffffffffffff16815260200190815260200160002060006101000a81548160ff0219169083151502179055508173ffffffffffffffffffffffffffffffffffffffff168373ffffffffffffffffffffffffffffffffffffffff167f17307eab39ab6107e8899845ad3d59bd9653f200f220920489ca2b5937696c31836040516110279190611c1f565b60405180910390a3505050565b61103f848484610c60565b61104b84848484611356565b61108a576040517f08c379a000000000000000000000000000000000000000000000000000000000815260040161108190611c5c565b60405180910390fd5b50505050565b60008073ffffffffffffffffffffffffffffffffffffffff166002600084815260200190815260200160002060009054906101000a900473ffffffffffffffffffffffffffffffffffffffff1673ffffffffffffffffffffffffffffffffffffffff1614159050919050565b600073ffffffffffffffffffffffffffffffffffffffff168273ffffffffffffffffffffffffffffffffffffffff16141561116c576040517f08c379a000000000000000000000000000000000000000000000000000000000815260040161116390611d3c565b60405180910390fd5b61117581611090565b156111b5576040517f08c379a00000000000000000000000000000000000000000000000000000000081526004016111ac90611c9c565b60405180910390fd5b6111c16000838361134c565b6001600360008473ffffffffffffffffffffffffffffffffffffffff1673ffffffffffffffffffffffffffffffffffffffff16815260200190815260200160002060008282546112119190611eb6565b92505081905550816002600083815260200190815260200160002060006101000a81548173ffffffffffffffffffffffffffffffffffffffff021916908373ffffffffffffffffffffffffffffffffffffffff160217905550808273ffffffffffffffffffffffffffffffffffffffff16600073ffffffffffffffffffffffffffffffffffffffff167fddf252ad1be2c89b69c2b068fc378daa952ba7f163c4a11628f55a4df523b3ef60405160405180910390a46112d260008383611351565b5050565b806112e081611090565b61131f576040517f08c379a000000000000000000000000000000000000000000000000000000000815260040161131690611d9c565b60405180910390fd5b82600660008481526020019081526020016000209080519060200190611346929190611510565b50505050565b505050565b505050565b60006113778473ffffffffffffffffffffffffffffffffffffffff166114ed565b156114e0578373ffffffffffffffffffffffffffffffffffffffff1663150b7a026113a0610b0a565b8786866040518563ffffffff1660e01b81526004016113c29493929190611bd3565b602060405180830381600087803b1580156113dc57600080fd5b505af192505050801561140d57506040513d601f19601f8201168201806040525081019061140a9190611923565b60015b611490573d806000811461143d576040519150601f19603f3d011682016040523d82523d6000602084013e611442565b606091505b50600081511415611488576040517f08c379a000000000000000000000000000000000000000000000000000000000815260040161147f90611c5c565b60405180910390fd5b805181602001fd5b63150b7a0260e01b7bffffffffffffffffffffffffffffffffffffffffffffffffffffffff1916817bffffffffffffffffffffffffffffffffffffffffffffffffffffffff1916149150506114e5565b600190505b949350505050565b6000808273ffffffffffffffffffffffffffffffffffffffff163b119050919050565b82805461151c90611ff6565b90600052602060002090601f01602090048101928261153e5760008555611585565b82601f1061155757805160ff1916838001178555611585565b82800160010185558215611585579182015b82811115611584578251825591602001919060010190611569565b5b5090506115929190611596565b5090565b5b808211156115af576000816000905550600101611597565b5090565b60006115c66115c184611e1c565b611df7565b9050828152602081018484840111156115de57600080fd5b6115e9848285611fb4565b509392505050565b60006116046115ff84611e4d565b611df7565b90508281526020810184848401111561161c57600080fd5b611627848285611fb4565b509392505050565b60008135905061163e816123ed565b92915050565b60008135905061165381612404565b92915050565b6000813590506116688161241b565b92915050565b60008151905061167d8161241b565b92915050565b600082601f83011261169457600080fd5b81356116a48482602086016115b3565b91505092915050565b600082601f8301126116be57600080fd5b81356116ce8482602086016115f1565b91505092915050565b6000813590506116e681612432565b92915050565b6000602082840312156116fe57600080fd5b600061170c8482850161162f565b91505092915050565b6000806040838503121561172857600080fd5b60006117368582860161162f565b92505060206117478582860161162f565b9150509250929050565b60008060006060848603121561176657600080fd5b60006117748682870161162f565b93505060206117858682870161162f565b9250506040611796868287016116d7565b9150509250925092565b600080600080608085870312156117b657600080fd5b60006117c48782880161162f565b94505060206117d58782880161162f565b93505060406117e6878288016116d7565b925050606085013567ffffffffffffffff81111561180357600080fd5b61180f87828801611683565b91505092959194509250565b6000806040838503121561182e57600080fd5b600061183c8582860161162f565b925050602061184d85828601611644565b9150509250929050565b6000806040838503121561186a57600080fd5b60006118788582860161162f565b9250506020611889858286016116d7565b9150509250929050565b6000806000606084860312156118a857600080fd5b60006118b68682870161162f565b93505060206118c7868287016116d7565b925050604084013567ffffffffffffffff8111156118e457600080fd5b6118f0868287016116ad565b9150509250925092565b60006020828403121561190c57600080fd5b600061191a84828501611659565b91505092915050565b60006020828403121561193557600080fd5b60006119438482850161166e565b91505092915050565b60006020828403121561195e57600080fd5b600061196c848285016116d7565b91505092915050565b61197e81611f40565b82525050565b61198d81611f52565b82525050565b600061199e82611e7e565b6119a88185611e94565b93506119b8818560208601611fc3565b6119c1816120e6565b840191505092915050565b60006119d782611e89565b6119e18185611ea5565b93506119f1818560208601611fc3565b6119fa816120e6565b840191505092915050565b6000611a12603283611ea5565b9150611a1d826120f7565b604082019050919050565b6000611a35602583611ea5565b9150611a4082612146565b604082019050919050565b6000611a58601c83611ea5565b9150611a6382612195565b602082019050919050565b6000611a7b602483611ea5565b9150611a86826121be565b604082019050919050565b6000611a9e601983611ea5565b9150611aa98261220d565b602082019050919050565b6000611ac1602983611ea5565b9150611acc82612236565b604082019050919050565b6000611ae4603e83611ea5565b9150611aef82612285565b604082019050919050565b6000611b07602083611ea5565b9150611b12826122d4565b602082019050919050565b6000611b2a601883611ea5565b9150611b35826122fd565b602082019050919050565b6000611b4d602183611ea5565b9150611b5882612326565b604082019050919050565b6000611b70601f83611ea5565b9150611b7b82612375565b602082019050919050565b6000611b93602e83611ea5565b9150611b9e8261239e565b604082019050919050565b611bb281611faa565b82525050565b6000602082019050611bcd6000830184611975565b92915050565b6000608082019050611be86000830187611975565b611bf56020830186611975565b611c026040830185611ba9565b8181036060830152611c148184611993565b905095945050505050565b6000602082019050611c346000830184611984565b92915050565b60006020820190508181036000830152611c5481846119cc565b905092915050565b60006020820190508181036000830152611c7581611a05565b9050919050565b60006020820190508181036000830152611c9581611a28565b9050919050565b60006020820190508181036000830152611cb581611a4b565b9050919050565b60006020820190508181036000830152611cd581611a6e565b9050919050565b60006020820190508181036000830152611cf581611a91565b9050919050565b60006020820190508181036000830152611d1581611ab4565b9050919050565b60006020820190508181036000830152611d3581611ad7565b9050919050565b60006020820190508181036000830152611d5581611afa565b9050919050565b60006020820190508181036000830152611d7581611b1d565b9050919050565b60006020820190508181036000830152611d9581611b40565b9050919050565b60006020820190508181036000830152611db581611b63565b9050919050565b60006020820190508181036000830152611dd581611b86565b9050919050565b6000602082019050611df16000830184611ba9565b92915050565b6000611e01611e12565b9050611e0d8282612028565b919050565b6000604051905090565b600067ffffffffffffffff821115611e3757611e366120b7565b5b611e40826120e6565b9050602081019050919050565b600067ffffffffffffffff821115611e6857611e676120b7565b5b611e71826120e6565b9050602081019050919050565b600081519050919050565b600081519050919050565b600082825260208201905092915050565b600082825260208201905092915050565b6000611ec182611faa565b9150611ecc83611faa565b9250827fffffffffffffffffffffffffffffffffffffffffffffffffffffffffffffffff03821115611f0157611f00612059565b5b828201905092915050565b6000611f1782611faa565b9150611f2283611faa565b925082821015611f3557611f34612059565b5b828203905092915050565b6000611f4b82611f8a565b9050919050565b60008115159050919050565b60007fffffffff0000000000000000000000000000000000000000000000000000000082169050919050565b600073ffffffffffffffffffffffffffffffffffffffff82169050919050565b6000819050919050565b82818337600083830152505050565b60005b83811015611fe1578082015181840152602081019050611fc6565b83811115611ff0576000848401525b50505050565b6000600282049050600182168061200e57607f821691505b6020821081141561202257612021612088565b5b50919050565b612031826120e6565b810181811067ffffffffffffffff821117156120505761204f6120b7565b5b80604052505050565b7f4e487b7100000000000000000000000000000000000000000000000000000000600052601160045260246000fd5b7f4e487b7100000000000000000000000000000000000000000000000000000000600052602260045260246000fd5b7f4e487b7100000000000000000000000000000000000000000000000000000000600052604160045260246000fd5b6000601f19601f8301169050919050565b7f4552433732313a207472616e7366657220746f206e6f6e20455243373231526560008201527f63656976657220696d706c656d656e7465720000000000000000000000000000602082015250565b7f4552433732313a207472616e736665722066726f6d20696e636f72726563742060008201527f6f776e6572000000000000000000000000000000000000000000000000000000602082015250565b7f4552433732313a20746f6b656e20616c7265616479206d696e74656400000000600082015250565b7f4552433732313a207472616e7366657220746f20746865207a65726f2061646460008201527f7265737300000000000000000000000000000000000000000000000000000000602082015250565b7f4552433732313a20617070726f766520746f2063616c6c657200000000000000600082015250565b7f4552433732313a2061646472657373207a65726f206973206e6f74206120766160008201527f6c6964206f776e65720000000000000000000000000000000000000000000000602082015250565b7f4552433732313a20617070726f76652063616c6c6572206973206e6f7420746f60008201527f6b656e206f776e6572206e6f7220617070726f76656420666f7220616c6c0000602082015250565b7f4552433732313a206d696e7420746f20746865207a65726f2061646472657373600082015250565b7f4552433732313a20696e76616c696420746f6b656e2049440000000000000000600082015250565b7f4552433732313a20617070726f76616c20746f2063757272656e74206f776e6560008201527f7200000000000000000000000000000000000000000000000000000000000000602082015250565b7f455243373231206572726f723a20546f6b656e4944206e6f7420666f756e6400600082015250565b7f4552433732313a2063616c6c6572206973206e6f7420746f6b656e206f776e6560008201527f72206e6f7220617070726f766564000000000000000000000000000000000000602082015250565b6123f681611f40565b811461240157600080fd5b50565b61240d81611f52565b811461241857600080fd5b50565b61242481611f5e565b811461242f57600080fd5b50565b61243b81611faa565b811461244657600080fd5b5056fea264697066735822122011c265f7368ecd9d1391f67a24a7554945cff98090ed80597a15fb0618c61ba564736f6c63430008020033",
    "linkReferences": {},
    "deployedLinkReferences": {}
}